:04000000CCEF3FF012
:107F98000001CFEF3FF00F0EC16E9368000E956E93
:107FA80081A002D08C8001D08C9081A202D08C82DA
:107FB80001D08C9281A402D08C8401D08C9481A6AB
:107FC80002D08C8601D08C9681A802D08C8801D0F2
:107FD8008C9881AA02D08C8A01D08C9A81AC02D06C
:107FE8008C8C01D08C9C81AE02D08C8E01D08C9E62
:087FF800D4EF3FF000EF00F0B0
:020000040020DA
:08000000FFFFFFFFFFFFFFFF00
:020000040030CA
:0E000000000C1F1FFF8385FF0FC00FE00F4095
:00000001FF
